:10000000FC7F002099050000890500008D05000097
:1000100000000000000000000000000000000000E0
:10002000000000000000000000000000910500003A
:10003000000000000000000095050000950600008B
:1000400010B5064C2378002B07D1054B002B02D0AE
:10005000044800E000BF0123237010BD58000020B9
:10006000000000000814000008B5084B002B03D066
:100070000748084900E000BF07480368002B03D089
:10008000064B002B00D0984708BDC046000000007A
:10009000081400005C000020540000200000000054
:1000A00070B50368041C988B1A1C0821FF320842A3
:1000B00028D0988B174D0143802099839872112383
:1000C00053704021144B917150715E68C0202E40D6
:1000D000800506435E605E693540284358610F48DD
:1000E00018600F4818615D680E4828408025AD02F1
:1000F000284358605868800B800358600023517172
:10010000237105E0137ADA0602D5201C00F0FAFA12
:10011000207970BDFFFFFF8F8C0100208C00002034
:100120000C010020FF3F00F0002303714371044BDA
:10013000016083600B78022213430B707047C04646
:10014000A100000038B5364B2021DA6901200A43AE
:10015000DA61344B06241A7802431A70324B0F22AC
:100160001978914319701978214319702F490C7827
:100170002043087019780A401A701A7860210A43DF
:100180001A702B4B2B4A5A805A7852B2002AFBDB4A
:10019000294B01211A780A431A709A78D107FCD4A6
:1001A00026480268510B1F221140914200D10521BF
:1001B00011408C011D8D2249294021431985046875
:1001C000A10C0A401F2A00D11D221C8D1F210A40AC
:1001D0008C4322431A8502680721D20D0A408A42C5
:1001E00000D103220A40188D1103164A02400A4327
:1001F0001A8519787F220A401A701A780421124849
:100200000A431A7058621A890C218A431A811A8982
:1002100001218A431A810021802200F082FF38BD2B
:1002200000040040584400413C440041594400410E
:10023000000C004006400000005000412460800097
:100240003FF8FFFFFF8FFFFF8C010020F7B5141C64
:10025000234A5F0101971D1CD319061C5869271CEE
:100260004000400F03301033C74006D00F1C8022DF
:10027000596812060A435A6009E02F1C7B1E9F41F1
:10028000184BBF01FF18381C221C00F041FF0199D8
:100290001348083542181761131C5269A104920BC8
:1002A000890C92030A435A6159690F4A02200A4095
:1002B0005A616B01F318D979032211400143D879AF
:1002C0009043021C0A43DA715979802252420A4350
:1002D0005A716B01F318DB799A07FAD5201CFEBD21
:1002E0008C0100200C010020FF3F00F0F8B51E4EED
:1002F000041C3378151C002B12D11C4B1C4A1A64A9
:100300005A6C920B92035A64586C1A4A02405A640F
:10031000A2235B00E25C40200243E25401233370DD
:100320004827FF37E25D012313401AD00F4B5A6C68
:100330009204920CAA4202D25D6CAD04AD0C081C72
:100340002A1C0B4900F0E4FEE25D03231A40012160
:100350000A43E15D99430B1C1343E35500233370BB
:1003600000E01D1C281CF8BD740000208C0100203A
:10037000CC000020FF3F00F0FF30827930239A4309
:10038000131C2022002900D11022134383717047CF
:100390000C4BFF305A690221920B92035A61027A88
:1003A00003231A400A43017A99430B1C1343037237
:1003B000827980235B4213438371037A9A07FCD5C9
:1003C0007047C0468C01002080235B421943C9B2AC
:1003D0008172704770B5A02303225B00C254134B97
:1003E000134A5C6CC021144089050C4346255C64AB
:1003F000FF35402444550F4D30261D6490256D0077
:1004000046555D6B15402943922559636D00802147
:100410004155094D1D63B0256D0044555C6F224068
:100420005A67B2235B00C15470BDC0468C010020E6
:10043000FFFFFF8FCC0000204C010020464930B563
:100440000E238B61454B464A1868464BC0049C6995
:10045000400E0004224002439A619869424A1E25D8
:100460000240C020C00002439A619A698020824302
:100470009A619A69402002439A619A690420024372
:100480009A619A69022002439A61384A5468AC43DF
:1004900020435060364A012010705478344864B2CA
:1004A000002CFADB01248460324C44608224E40195
:1004B0004480507840B20028FBDB988C8024A04315
:1004C0009884988C4024A0439884988C04242043DA
:1004D00098849C8C80208000204398849C8C802071
:1004E0000001204398849C8C234820409884988C59
:1004F0001024A0439884DC6AE020A401A4094005EC
:100500002043D862DC6A1D482040FC24A403204319
:10051000D862D86A1A4C000C00042043D862988C28
:10052000022420439884D8680406FCD50D48C0688E
:100530004406F8D5D868C406FCD500239360114B57
:10054000536053785BB2002BFBDB00230B724B72C2
:100550008B72CB7230BDC046000400402460800026
:10056000FFFF80FF00080040FFF8FFFF0040004150
:10057000000C004001040100FFFEFFFFFFFF00FC34
:10058000B9050000000701000EBEFEE70DBEFEE744
:1005900005BEFEE702BEFEE70E4A0F4838B58242AE
:1005A00004D10E4A0E4B93420ED10AE00D4C9442F8
:1005B000F7D00023D1188842F3D9E55804330D60F1
:1005C000F8E700F011F804E09342FAD2002102C3E8
:1005D000FAE7FEE700000020580000208C0200200F
:1005E000580000200C140000234BF7B519681D1C9F
:1005F000224C4A1C1AD0DAB2002A17D1204A802095
:10060000204E80010627506037709061106A6A465C
:100610008004C00FD07107321278002A06D081F30F
:100620000888FF229343A3606B681847FFF706FF13
:1006300062B600F033F8144B144A051C5A60216A64
:10064000C0220902090A12060A43226200229A60A5
:1006500007221A60AB68281C98470D4B002801D070
:1006600001221A701B78002BF4D0002000F092FABF
:1006700000F0EAFAFCE7C0460020000000ED00E0D0
:10068000004400414D44004110E000E0E703000059
:100690007500002008B500F0D5FA08BD10B5054B6F
:1006A000054C2360FFF74EFD201C2168FFF73CFD41
:1006B000201C10BD005000410C02002070B5051C2C
:1006C000C0B0081C161C0C1C00F033FD40006A462C
:1006D000032302305370107076080123E218013AA8
:1006E00011785A00002906D1281C69460023FFF71B
:1006F000ADFD40B070BDB342F6DA684681520133B9
:10070000ECE70000F7B50468051C201CFF30037AF5
:10071000AF4A10210B430372AE4F1378AE493B70C2
:100720005378AE4E0B7093783380D17833880902BA
:100730000B4333801179AA4B198051791F88090224
:100740000F431F809779A7490F80D2790F88120233
:100750003A430A80402242719F489E4F027838787F
:1007600012020243A0480F1C8446181C624500D1A7
:10077000C2E020DC802149008A4200D185E109DC09
:10078000812A00D192E0822A00D195E0802A00D00F
:100790007BE18BE081235B009A4200D1D5E000DA57
:1007A0006FE1C0239B009A4200D16EE18F4B9A42C9
:1007B00000D166E169E190231B019A4269D015DC02
:1007C000D023DB009A4222D088231B019A4269D0B1
:1007D000A023DB009A4200D057E1201CFFF7D8FD90
:1007E0003188286889B2FFF7EFFD52E1804B9A42C9
:1007F00000D146E100DC48E17E4B9A4200D134E171
:100800007D4B9A4200D040E133886B7139E13388E7
:100810001B0A012B08D10B8812222868934201D8A9
:100820000A8892B2754928E133881B0A022B08D145
:100830000B8843222868934201D80A8892B27049F3
:100840001BE133881B0A032B00D01EE13388DBB287
:10085000012B17D0002B07D0022B00D015E10A88FE
:100860002868D2B2674911E0042201A8664900F065
:100870004FFC3B8804222868934201D83A8892B200
:1008800001A9FAE00A8828686049D2B2FFF716FF8A
:10089000FFE03388201C2B71FFF77AFD201CFFF747
:1008A00099FDF6E0291C01C90122E6E05849002320
:1008B0000B8028680222E1E0554900220A8018884E
:1008C00050221040534A10701E880F20304018806C
:1008D0001888032800D9D8E012781B8808335B01F8
:1008E000E418A379002A01D09B0600E0DB06DB0FA9
:1008F0000B8028680222C0E019887F229143454A74
:10090000C9B2117018880F2101401980318800295F
:1009100000D0BAE01988002900D1B6E0198803296F
:1009200000D9B2E012781B8808335B01E318002A73
:1009300004D05A7930218A43202103E05A793021AA
:100940008A4310210A435A719BE002887F239A430D
:10095000304BD2B21A7001880F220A4002803288CE
:10096000002A00D091E00288002A00D18DE00288A0
:10097000032A00D989E01B78002B4DD00388083367
:100980005B01E3189B799A0600D47AE00388302152
:1009900008335B01E3181A798A4320210A431A714C
:1009A000038808335B01E318DB795F0669D50388A8
:1009B000602108335B01E318DA798A4340210A4356
:1009C000DA710388022208335B01E3184BE0C0466A
:1009D0008C00002080000020780000207A00002099
:1009E0007C0000207E0000200203000001030000C4
:1009F00021200000A1210000212200007811000028
:100A0000000000206A110000581100005C11000075
:100A10007600002081000020038808335B01E31882
:100A20009B79D9062DD50388302108335B01E31863
:100A30001A798A4310210A431A71038808335B012B
:100A4000E318DB799A061CD50388602108335B0123
:100A5000E318DA798A4320210A43DA7103880122F4
:100A600008335B01E3181A710BE00B880822286831
:100A7000934201D80A8892B206490023FFF7E6FBA9
:100A800007E0201CFFF784FC03E0201C0121FFF796
:100A900073FCF7BD4400002007B5054B012201900F
:100AA00001A91868131CFFF7D1FB01200EBDC04639
:100AB0000C02002013B5054B6C4607341868211C46
:100AC0000122FFF713FC207816BDC0460C0200205F
:100AD00010B5074C201CFFF7E3FA031C00208342EB
:100AE00005D022684823FF33D05C0123184010BD95
:100AF0000C02002010B5054A0C1C031C191C1068C0
:100B00000123221CFFF7A2FB201C10BD0C020020B9
:100B100070B5084C061C201C0D1CFFF7C1FA002301
:100B2000984205D02068311C2A1CFFF7DFFB031C0C
:100B3000181C70BD0C020020F8B50C4C051C201CC4
:100B40000E1CFFF7ADFA0023271C341C98420AD074
:100B5000002C07D0291C221C3868FFF7C7FB241A79
:100B60002D18F5E7331C181CF8BDC0460C020020F8
:100B700008B5031C081C111C984708BD0B0A5840F7
:100B8000034B4000C05A0902484080B27047C0463B
:100B9000AC110000002802D1014A024B1A607047D4
:100BA000DC1300007C02002030B50A1C1C4985B013
:100BB0000978031C00292AD0042A01D1006804E026
:100BC000022A01D1008800E00078520004A98B18A5
:100BD0000B3B9C1AA3420BD00F210140092902D8DC
:100BE0003025294300E0373119700009013BF1E756
:100BF00001A930230B7078234B700A208B18987052
:100C00000D20D870074B04321B68D86803E00549F3
:100C10000968C868191CFFF7ABFF05B030BDC046B6
:100C2000820000207C02002072B6EFF30883044AA1
:100C30001360036883F30888436818477047C04609
:100C40008002002070470000F0B58FB006A9CE4AA0
:100C50000B1C31CA31C351CA51C360CA60C3CB4BEC
:100C6000CB489A687A255203520F92005258C949CC
:100C700002609C68A4B262430C60C74900240A6009
:100C8000C64A1460C64C2570C64DC74C2B68201C44
:100C90001B6940219847C54B00221860C44B1C605B
:100CA000C44BC44CC14F1A6022683B689A42EBD2D5
:100CB000BF4B1B681A78FF2A00D10DE2232A00D00F
:100CC000E4E1BD4E3378002B06D0B64BBB491B6820
:100CD0000222D868FFF74CFFB14B1B78532B38D159
:100CE0003B68226893421ED9B148013222609A1AA9
:100CF000B34B01681B6801310160B24E9A4201D2C8
:100D0000326000E03360A54832680068029000F06D
:100D1000FFF9336821685A182260A54A1668F1184D
:100D20001160A94A13702368013B2360A04B1A6825
:100D3000013A1A60A44BA24A1B7811688B4206D272
:100D4000984A964812680068C91A92699047C04646
:100D50008AE1522B08D1914A924B10681B68984A3D
:100D60005B69116898477FE14F2B05D18B4B944A03
:100D70001B6812681A7077E1482B05D1874B904A9F
:100D80001B6812681A806FE1572B05D1834B8C4A80
:100D90001B6812681A6067E16F2B03D17F4B01213A
:100DA000186807E0682B08D17C4B85481B68022136
:100DB0001B880360FFF7F8FE56E1772B06D1774BCF
:100DC0007F481B6804211B680360F3E7472B13D19E
:100DD0007B4B1868FFF728FF7C4B1B6883F3088860
:100DE00062B67B4B1B78002B00D13DE16D4B06209A
:100DF0001B681B68984737E1542B04D101233370DB
:100E0000684B1B6864E04E2B0CD13378002B06D165
:100E1000644B6A491B680222D868FFF7A9FE0023C9
:100E2000337021E1562B57D12B686A49D8680122CB
:100E3000FFF79EFE2B686849D8680322FFF798FEEB
:100E4000664C2B68211CD8680122FFF791FE2B68A5
:100E50006349D8680D22FFF78BFE2B68211CD868E8
:100E60000122FFF785FE524F524C5E490023396044
:100E700023603A1C201C13685E1C16601B780393C9
:100E8000002B03D0036801330360F4E7454E22686A
:100E90003368D868FFF76CFE33685049D868012280
:100EA000FFF766FE0398504920603960404A136896
:100EB000581C10601B78002B04D03E4B1A6801327E
:100EC0001A60F3E733682268D868FFF751FE336889
:100ED000D8683A490222C5E0394A582B17D12C4E1E
:100EE0002D4C366813682268B10093420AD2274C11
:100EF0005808E0613D482080244C207DC607FBD582
:100F00005B18F2E7274B3A491B68D868A9E0592BD0
:100F100078D11268214B3749002A02D11B680B6037
:100F20002CE01A4C086819686368184E8024A343A3
:100F300092087360002A21D02F4B144C2380134E4B
:100F4000337DDC07FBD50023114C24680094A408F2
:100F5000A34203D3294C0D4E348006E09342F9D0CE
:100F60009C00065901330E51EEE7084E347DE6072A
:100F7000FBD59C0009190019D21ADBE7094B20495F
:100F80001B68D8686DE0C0468C110000004000412D
:100F9000340200202C0200202802002078020020C9
:100FA000240200207C020020380200201C020020C5
:100FB000200200203002002082000020D013000018
:100FC00084020020880200201802002080020020F5
:100FD00088000020AC130000D5130000AE13000001
:100FE000F8130000B0130000BC13000002A5FFFFBF
:100FF000C51300008400002044A5FFFF04A5FFFFE7
:10100000C91300005A2B2FD1374B17681C680026D4
:10101000E719BC4206D02078311CFFF7AFFD013440
:10102000061CF6E7314B32491B680122D868FFF7EE
:101030009FFD07230F223240111C36093031092A47
:1010400000DD07311020C0186A468154013BF1D2FF
:101050002B6804A9D8680822FFF78AFD2B68254968
:10106000D8680322FFF784FD234B7A221A70234BA2
:1010700000221A60224B1B7893422DD01B4B214932
:101080001B680122D868FFF773FD25E0111C303979
:10109000C8B21A4B092804D81C68220111431960F0
:1010A0001AE0111C4139052903D81E68373A31016D
:1010B00006E0111C6139052904D81868573A010166
:1010C0000A4308E02C2A03D1074A1968116001E09D
:1010D00009490A7000221A600B4B1A6801321A6023
:1010E0000A4B1A680132DCE5780200207C020020FD
:1010F000CD130000CF130000240200208402002042
:1011000082000020D31300003002002020020020C3
:1011100010B50023934203D0CC5CC4540133F9E7EB
:1011200010BD031C8218934202D019700133FAE7F4
:1011300070470023C25C0133002AFBD1581E704760
:10114000F8B5C046F8BC08BC9E467047F8B5C04626
:10115000F8BC08BC9E46704704030904417645204C
:10116000436F6D6D756E69747900426C75652053BF
:10117000756E204F46500000120100020200004030
:1011800041234D00000201020001000008000000A0
:10119000100000002000000040000000800000005F
:1011A0000001000000020000000400000000211007
:1011B000422063308440A550C660E77008812991C1
:1011C0004AA16BB18CC1ADD1CEE1EFF13112100269
:1011D00073325222B5529442F772D6623993188311
:1011E0007BB35AA3BDD39CC3FFF3DEE36224433435
:1011F00020040114E664C774A44485546AA54BB561
:1012000028850995EEE5CFF5ACC58DD55336722608
:1012100011163006D776F6669556B4465BB77AA7B0
:1012200019973887DFF7FEE79DD7BCC7C448E55854
:101230008668A7784008611802282338CCC9EDD900
:101240008EE9AFF9488969990AA92BB9F55AD44AA8
:10125000B77A966A711A500A333A122AFDDBDCCB50
:10126000BFFB9EEB799B588B3BBB1AABA66C877C74
:10127000E44CC55C222C033C600C411CAEED8FFDA0
:10128000ECCDCDDD2AAD0BBD688D499D977EB66E48
:10129000D55EF44E133E322E511E700E9FFFBEEFF0
:1012A000DDDFFCCF1BBF3AAF599F788F8891A981B2
:1012B000CAB1EBA10CD12DC14EF16FE18010A1009C
:1012C000C230E3200450254046706760B98398938C
:1012D000FBA3DAB33DC31CD37FE35EF3B1029012EC
:1012E000F322D2323542145277625672EAB5CBA558
:1012F000A89589856EF54FE52CD50DC5E234C3243C
:10130000A01481046674476424540544DBA7FAB72B
:101310009987B8975FE77EF71DC73CD7D326F2368B
:101320009106B01657667676154634564CD96DC977
:101330000EF92FE9C899E9898AB9ABA944586548DB
:1013400006782768C018E1088238A3287DCB5CDBCB
:101350003FEB1EFBF98BD89BBBAB9ABB754A545A2B
:10136000376A167AF10AD01AB32A923A2EFD0FED97
:101370006CDD4DCDAABD8BADE89DC98D267C076C7B
:10138000645C454CA23C832CE01CC10C1FEF3EFF6B
:101390005DCF7CDF9BAFBABFD98FF89F176E367ECB
:1013A000554E745E932EB23ED10EF01E7600200094
:1013B0004E6F7620323420323031360032333A33B9
:1013C000303A353400580A0D00590A0D005A0023EE
:1013D0000A0D003E00322E3000000000990A000085
:1013E000B50A0000D10A0000F50A0000110B000048
:1013F000F50A0000390B00005B41726475696E6F7D
:0C1400003A58595A5D000000000000003E
:10140C0009024300020100803209040000010202BB
:10141C00000005240010010424020005240600012C
:10142C000524010001070583030800FF09040100DE
:10143C00020A0000000705810240000007050202B5
:10144C004000000000C2010000000800690000001C
:08145C00410000000000000047
:04000003000005995B
:00000001FF
